:020000040000fa
:080000000002040000000000f2
:020000040000fa
:040008002c040000c4
:020000040000fa
:04000c002c040000c0
:020000040000fa
:040010002c040000bc
:020000040000fa
:040014002c040000b8
:020000040000fa
:040018002c040000b4
:020000040000fa
:04001c002c040000b0
:020000040000fa
:040020002c040000ac
:020000040000fa
:040024002c040000a8
:020000040000fa
:040028002c040000a4
:020000040000fa
:04002c00d4030000f9
:020000040000fa
:040030002c0400009c
:020000040000fa
:040034002c04000098
:020000040000fa
:040038002c04000094
:020000040000fa
:04003c002c04000090
:020000040000fa
:040040002c0400008c
:020000040000fa
:040044002c04000088
:020000040000fa
:040048002c04000084
:020000040000fa
:04004c002c04000080
:020000040000fa
:040050002c0400007c
:020000040000fa
:040054002c04000078
:020000040000fa
:040058002c04000074
:020000040000fa
:04005c002c04000070
:020000040000fa
:040060002c0400006c
:020000040000fa
:040064002c04000068
:020000040000fa
:040068002c04000064
:020000040000fa
:04006c002c04000060
:020000040000fa
:040070002c0400005c
:020000040000fa
:040074002c04000058
:020000040000fa
:040078002c04000054
:020000040000fa
:04007c002c04000050
:020000040000fa
:040080002c0400004c
:020000040000fa
:040084002c04000048
:020000040000fa
:040088002c04000044
:020000040000fa
:04008c002c04000040
:020000040000fa
:040090002c0400003c
:020000040000fa
:040094002c04000038
:020000040000fa
:040098002c04000034
:020000040000fa
:04009c002c04000030
:020000040000fa
:0400a0002c0400002c
:020000040000fa
:0400a4002c04000028
:020000040000fa
:0400a8002c04000024
:020000040000fa
:0400ac002c04000020
:020000040000fa
:0400b0002c0400001c
:020000040000fa
:0400b4002c04000018
:020000040000fa
:0400b8002c04000014
:020000040000fa
:0400bc002a03000013
:020000040000fa
:0400c0002c0400000c
:020000040000fa
:0400c4002c04000008
:020000040000fa
:0400c8002c04000004
:020000040000fa
:0400cc002c04000000
:020000040000fa
:0400d0002c040000fc
:020000040000fa
:0400d4002c040000f8
:020000040000fa
:0400d8002c040000f4
:020000040000fa
:0400dc002c040000f0
:020000040000fa
:0400e0002c040000ec
:020000040000fa
:0400e4002c040000e8
:020000040000fa
:0400e8002c040000e4
:020000040000fa
:0400ec002c040000e0
:020000040000fa
:0400f0002c040000dc
:020000040000fa
:0400f4002c040000d8
:020000040000fa
:0400f8002c040000d4
:020000040000fa
:0400fc002c040000d0
:020000040000fa
:040100002c040000cb
:020000040000fa
:040104002c040000c7
:020000040000fa
:040108002c040000c3
:020000040000fa
:04010c002c040000bf
:020000040000fa
:040110002c040000bb
:020000040000fa
:040114002c040000b7
:020000040000fa
:040118002c040000b3
:020000040000fa
:04011c002c040000af
:020000040000fa
:040120002c040000ab
:020000040000fa
:040124002c040000a7
:020000040000fa
:040128002c040000a3
:020000040000fa
:04012c002c0400009f
:020000040000fa
:040130002c0400009b
:020000040000fa
:040134002c04000097
:020000040000fa
:040138002c04000093
:020000040000fa
:04013c002c0400008f
:020000040000fa
:040140002c0400008b
:020000040000fa
:040144002c04000087
:020000040000fa
:040148002c04000083
:020000040000fa
:04014c002c0400007f
:020000040000fa
:040150002c0400007b
:020000040000fa
:040154002c04000077
:020000040000fa
:040158002c04000073
:020000040000fa
:04015c002c0400006f
:020000040000fa
:040160002c0400006b
:020000040000fa
:040164002c04000067
:020000040000fa
:040168002c04000063
:020000040000fa
:04016c002c0400005f
:020000040000fa
:040170002c0400005b
:020000040000fa
:040174002c04000057
:020000040000fa
:040178002c04000053
:020000040000fa
:04017c002c0400004f
:020000040000fa
:040180002c0400004b
:020000040000fa
:040184002c04000047
:020000040000fa
:040188002c04000043
:020000040000fa
:04018c002c0400003f
:020000040000fa
:040190002c0400003b
:020000040000fa
:040194002c04000037
:020000040000fa
:040198002c04000033
:020000040000fa
:04019c002c0400002f
:020000040000fa
:0401a0002c0400002b
:020000040000fa
:0401a4002c04000027
:020000040000fa
:0401a8002c04000023
:020000040000fa
:0401ac002c0400001f
:020000040000fa
:0401b0001a0300002e
:020000040000fa
:0401b4002c04000017
:020000040000fa
:0401b8002c04000013
:020000040000fa
:0401bc002c0400000f
:020000040000fa
:0401c0002c0400000b
:020000040000fa
:0401c400fa0200003b
:020000040000fa
:0401c8002c04000003
:020000040000fa
:0401cc002c040000ff
:020000040000fa
:0401d0002c040000fb
:020000040000fa
:0401d4000a0300001a
:020000040000fa
:0401d8002c040000f3
:020000040000fa
:0401dc002c040000ef
:020000040000fa
:0401e0002c040000eb
:020000040000fa
:0401e4002c040000e7
:020000040000fa
:0401e8002c040000e3
:020000040000fa
:0401ec002c040000df
:020000040000fa
:0401f0002c040000db
:020000040000fa
:0401f4002c040000d7
:020000040000fa
:0401f8002c040000d3
:020000040000fa
:0401fc002c040000cf
:020000040000fa
:040200002c040000ca
:020000040000fa
:040204002c040000c6
:020000040000fa
:040208002c040000c2
:020000040000fa
:04020c002c040000be
:020000040000fa
:040210002c040000ba
:020000040000fa
:040214002c040000b6
:020000040000fa
:040218002c040000b2
:020000040000fa
:04021c002c040000ae
:020000040000fa
:040220002c040000aa
:020000040000fa
:040224002c040000a6
:020000040000fa
:040228002c040000a2
:020000040000fa
:04022c002c0400009e
:020000040000fa
:040230002c0400009a
:020000040000fa
:040234002c04000096
:020000040000fa
:040238002c04000092
:020000040000fa
:04023c002c0400008e
:020000040000fa
:040240002c0400008a
:020000040000fa
:040244002c04000086
:020000040000fa
:040248002c04000082
:020000040000fa
:04024c002c0400007e
:020000040000fa
:040250002c0400007a
:020000040000fa
:040254002c04000076
:020000040000fa
:040258002c04000072
:020000040000fa
:04025c002c0400006e
:020000040000fa
:040260002c0400006a
:020000040000fa
:040264002c04000066
:020000040000fa
:040268002c04000062
:020000040000fa
:04026c002c0400005e
:020000040000fa
:040270002c0400005a
:020000040000fa
:040274002c04000056
:020000040000fa
:040278002c04000052
:020000040000fa
:04027c002c0400004e
:020000040000fa
:040280002c0400004a
:020000040000fa
:040284002c04000046
:020000040000fa
:040288002c04000042
:020000040000fa
:04028c002c0400003e
:020000040000fa
:040290002c0400003a
:020000040000fa
:040294002c04000036
:020000040000fa
:040298002c04000032
:020000040000fa
:04029c002c0400002e
:020000040000fa
:0402a0002c0400002a
:020000040000fa
:0402a4002c04000026
:020000040000fa
:0402a8002c04000022
:020000040000fa
:0402ac002c0400001e
:020000040000fa
:0402b0002c0400001a
:020000040000fa
:0402b4002c04000016
:020000040000fa
:0402b8002c04000012
:020000040000fa
:0402bc002c0400000e
:020000040000fa
:0402c0002c0400000a
:020000040000fa
:0402c4002c04000006
:020000040000fa
:0402c8002c04000002
:020000040000fa
:0402cc002c040000fe
:020000040000fa
:0402d0002c040000fa
:020000040000fa
:0402d4002c040000f6
:020000040000fa
:0402d8002c040000f2
:020000040000fa
:0402dc002c040000ee
:020000040000fa
:0402e0002c040000ea
:020000040000fa
:0402e4002c040000e6
:020000040000fa
:0402e8002c040000e2
:020000040000fa
:0402ec002c040000de
:020000040000fa
:0402f0002c040000da
:020000040000fa
:0402f4002c040000d6
:020000040000fa
:0402f8002c040000d2
:020000040000fa
:0402fc002c040000ce
:020000040000fa
:040300002c040000c9
:020000040000fa
:040304002c040000c5
:020000040000fa
:040308002c040000c1
:020000040000fa
:04030c002c040000bd
:020000040000fa
:040310002c040000b9
:020000040000fa
:040314002c040000b5
:020000040000fa
:040318002c040000b1
:020000040000fa
:04031c002c040000ad
:020000040000fa
:040320002c040000a9
:020000040000fa
:040324002c040000a5
:020000040000fa
:040328002c040000a1
:020000040000fa
:04032c002c0400009d
:020000040000fa
:040330002c04000099
:020000040000fa
:040334002c04000095
:020000040000fa
:10040000cf0121000eff26000e0188000000000031
:10041000000020000000e000020032000001200087
:1004200020028800140007000d0107000000e00012
:1004300003003a00c06520000100200002003700e0
:100440000000200001002000810f70000100320038
:100450000f000700000020000000e0000200320052
:1004600000000200000000000c0502000000000077
:100470000040da000000fe00200020000000e00044
:1004800002003200100020009001880000000600e9
:10049000a1028800800478000000eb001f003700f4
:1004a000e284440054a0b4009905ba00e2844400f8
:1004b00054a0b4009906ba00e284440054a0b400e9
:1004c0000006eb00476fde00fd07b200ae018800ba
:1004d000636ce10003003a000ad801000000eb0061
:1004e0000e003700606ce10008003a00004deb00a0
:1004f0000a05e800020039003420ec000af0a000f0
:100500008b05e900f9ff3e00040037006168e10057
:10051000010032000086eb000b00070019c7ba008b
:100520001905ba000e04e00003003a000a00e000da
:10053000dbff3a0000000600fe07b200ae028800b2
:100540008a047800f5ff37000cd0a300e20f4d00bd
:100550001c003b0089027800354dba000a05e8000e
:10056000020039003420ec000af0a0008b05e900fd
:100570000f003200254dba000a05e80002003900dc
:100580003420ec000af0a0008b05e90008003200de
:100590000c00e0000600320015cdba000a05e800a4
:1005a000020039003420ec000af0a0008b05e900bd
:1005b0008984e80054a0b4000b00e000e2ff3a0098
:1005c000000006009902ba00055d78008b05e9007d
:1005d000f7ff3200c82ade00055d78008b05e900d0
:1005e000f3ff32000c00e000f1ff320019ddba0029
:1005f000eeff3700801f78000000fa0020618000c5
:10060000008088000ce8a9000080fa004f00780004
:1006100000400600801f78000000fa006061800042
:10062000108088000d68a9000080fa004f00780053
:1006300000400600801f78000000fa00d0608000b3
:10064000208088000c48a9000080fa004f00780044
:1006500000400600809fbe000200fa0000118000ea
:10066000640060000000e0002f00320001118000f3
:1006700000022000008060000000e0002a003a0034
:10068000a0118000000f780000808000308088007a
:100690003080800080007800f00f20000080600033
:1006a00080808800308080008000780000f02f007b
:1006b0000080600090808800908080004800de000c
:1006c00090808800108080004080880040808000fa
:1006d00080007800f00f200000806000a08088007b
:1006e000408080008000780000f02f0000806000d3
:1006f000b0808800b08080004800de00b0808800b4
:10070000d0808000e10f500003003a00100a200062
:100710008011880002003700100b20008011880033
:100720001d82a8001c0037000011800064006000da
:100730000000e000180032000111800000022000db
:10074000008060000000e000130032000111800012
:1007500000002800008060000000e0000e003a0069
:10076000a0118000000f7800d0808000e10f5000c1
:1007700004003a00200a2000801188001a30ef009f
:1007800004003700200b200080118800100020009a
:10079000d08088001d82a80004a8a9000080fa006b
:1007a0004f00be0000400600809fbe000000fa001f
:1007b000c1728000004020000080600000f0a700af
:1007c0000000ea000000e9004f00de000040780071
:1007d0000080fb00610060004a00dd00d1728000f3
:1007e00001a0a10001007000d0728800c0808000cc
:1007f0000000e0000a0032004158800000fc2f0099
:1008000000806000c000b30040588800090ba800b9
:10081000092ba800092ba9001830ef000a003700a7
:100820004158800000fc2f00008060000040a000c4
:1008300040588800090ba800092ba800092ba90023
:1008400010002000c08088000028a9000080fa0065
:100850004f00be00004006000040da000000fe002d
:04086000000005008f
:020000040000fa
:100864000000fa008f0fa800717c800000fc2f00ac
:10087400008060000030a000707c8800110020001f
:10088400b0210a00900f00000080fa00000006006a
:100894000000fa001de2a90024a8a8001de2a80097
:1008a4001d42a90000072000201188001ce2a900b5
:1008b4001ea2a8001cc2a9000080fa0000000600c5
:1008c4000000fa002028a8000028a90001088000e0
:1008d400003020000100700000088800010880003a
:1008e40000032000010070000008880020002000a0
:1008f4004008880001e1a8000080fa00000006001a
:100904000000fa00386ea9003a6ea900556ea900dd
:10091400576ea900554ea900574ea9000080fa0051
:10092400000006000000fa00380ea8003a0ea800e5
:1009340038eea8003aeea8001c4ea8001e4ea800ef
:100944001158800000062000010070001058880033
:1009540041588000f0ff210000806000405888006a
:10096400d100200090210a00060b0000515880009d
:1009740000002c00010070005058880021588000ad
:1009840000f82f00008060000000a00020588800bc
:1009940002eba90051588000f00f2c000080600089
:1009a4005058880011608000f00f2f000080600014
:1009b40000a0a000106088000a0ba9000a2ba9005f
:1009c40001eba80000eca80000000000016080001a
:1009d40000002800008060000000e000fbff3200ff
:1009e4000aeba800c3e8a800218ba800220ba800ea
:1009f40020eba8002ce8a8000ce8a9002d68a800aa
:100a04000d68a9002c48a8000c48a9000080fa0031
:100a1400000006000000fa00b9ff070090ff07007d
:100a2400c0ff0700a6ff070099ff07000300370077
:100a34000000000001003700000000000180800079
:100a4400f01f2000808f500005003c0000808000d3
:100a54000000e000020034003e6ea80045003700ac
:100a640001808000f03f2000808f500006003c0091
:100a74000180800000202000808f5000020034009c
:100a84003e6ea9003b00370001808000306a2000e0
:100a9400808f500006003c0001808000f03f200061
:100aa400808f5000020034003e6ea80031003700f1
:100ab4000180800070892000808f500006003c0077
:100ac40001808000306a2000808f500002003400d2
:100ad4003e6ea900270037000180800080bb200003
:100ae400808f500006003c00018080007089200047
:100af400808f5000020034003e6ea8001d003700b5
:100b040001808000f0c72000808f500006003c0068
:100b14000180800070bb2000808f500002003400f0
:100b24003e6ea9001300370001808000b0f320005e
:100b3400808f500006003c0001808000f0c7200038
:100b4400808f5000020034003e6ea8000900370078
:100b54000180800000002100808f500005003c00cf
:100b640001808000b0f32000808f50000100340029
:100b74003e6ea90011808000f01f2000808f50007d
:100b840005003c00108080000000e00002003400fa
:100b94005b6ea8004600370011808000f03f200003
:100ba400808f500006003c0011808000002020004f
:100bb400808f5000020034005b6ea9003c003700b7
:100bc40011808000306a2000808f500006003c00b5
:100bd40011808000f03f2000808f5000020034001c
:100be4005b6ea800320037001180800070892000fd
:100bf400808f500006003c0011808000306a200085
:100c0400808f5000020034005b6ea900280037007a
:100c14001180800080bb2000808f500006003c00c3
:100c24001180800070892000808f50000200340001
:100c34005b6ea8001e00370011808000f0c7200002
:100c4400808f500006003c001180800070bb2000a3
:100c5400808f5000020034005b6ea900140037003e
:100c640011808000b0f32000808f500006003c000b
:100c740011808000f0c72000808f500002003400f3
:100c84005b6ea8000a00370011808000000021007c
:100c9400808f500066ff3c0011808000b0f320007c
:100ca400808f500064ff34005b6ea90063ff37003f
:040cb40062ff3700a4
:020000040000fa
:100cb800001000001800000080000000181000005c
:100cc8000400000082000000010001000000000094
:040cd8000000000018
:020000040000fa
:020000040005f5
:047e3800fcffff004c
:020000040000fa
:020000040005f5
:047e8000fffcff0004
:00000001FF
